{
  "contractName": "Flashloan",
  "abi": [
    {
      "inputs": [
        {
          "name": "kyberAddress",
          "type": "address"
        },
        {
          "name": "uniswapAddress",
          "type": "address"
        },
        {
          "name": "wethAddress",
          "type": "address"
        },
        {
          "name": "daiAddress",
          "type": "address"
        },
        {
          "name": "beneficiaryAddress",
          "type": "address"
        }
      ],
      "payable": false,
      "stateMutability": "nonpayable",
      "type": "constructor"
    },
    {
      "anonymous": false,
      "inputs": [
        {
          "indexed": false,
          "name": "direction",
          "type": "uint8"
        },
        {
          "indexed": false,
          "name": "profit",
          "type": "uint256"
        },
        {
          "indexed": false,
          "name": "date",
          "type": "uint256"
        }
      ],
      "name": "NewArbitrage",
      "type": "event"
    },
    {
      "constant": false,
      "inputs": [
        {
          "name": "sender",
          "type": "address"
        },
        {
          "components": [
            {
              "name": "owner",
              "type": "address"
            },
            {
              "name": "number",
              "type": "uint256"
            }
          ],
          "name": "account",
          "type": "tuple"
        },
        {
          "name": "data",
          "type": "bytes"
        }
      ],
      "name": "callFunction",
      "outputs": [],
      "payable": false,
      "stateMutability": "nonpayable",
      "type": "function"
    },
    {
      "constant": false,
      "inputs": [
        {
          "name": "_solo",
          "type": "address"
        },
        {
          "name": "_token",
          "type": "address"
        },
        {
          "name": "_amount",
          "type": "uint256"
        },
        {
          "name": "_direction",
          "type": "uint8"
        }
      ],
      "name": "initiateFlashloan",
      "outputs": [],
      "payable": false,
      "stateMutability": "nonpayable",
      "type": "function"
    }
  ],
  "bytecode": "0x60806040523480156200001157600080fd5b5060405160a0806200282e833981018060405262000033919081019062000198565b846000806101000a81548173ffffffffffffffffffffffffffffffffffffffff021916908373ffffffffffffffffffffffffffffffffffffffff16021790555083600160006101000a81548173ffffffffffffffffffffffffffffffffffffffff021916908373ffffffffffffffffffffffffffffffffffffffff16021790555082600260006101000a81548173ffffffffffffffffffffffffffffffffffffffff021916908373ffffffffffffffffffffffffffffffffffffffff16021790555081600360006101000a81548173ffffffffffffffffffffffffffffffffffffffff021916908373ffffffffffffffffffffffffffffffffffffffff16021790555080600460006101000a81548173ffffffffffffffffffffffffffffffffffffffff021916908373ffffffffffffffffffffffffffffffffffffffff16021790555050505050506200024e565b60006200019082516200021a565b905092915050565b600080600080600060a08688031215620001b157600080fd5b6000620001c18882890162000182565b9550506020620001d48882890162000182565b9450506040620001e78882890162000182565b9350506060620001fa8882890162000182565b92505060806200020d8882890162000182565b9150509295509295909350565b600062000227826200022e565b9050919050565b600073ffffffffffffffffffffffffffffffffffffffff82169050919050565b6125d0806200025e6000396000f3fe608060405234801561001057600080fd5b50600436106100365760003560e01c80638b4187131461003b578063c013147614610057575b600080fd5b610055600480360361005091908101906119c3565b610073565b005b610071600480360361006c9190810190611960565b610ebd565b005b61007b61159f565b8180602001905161008f9190810190611a94565b90506000600360009054906101000a900473ffffffffffffffffffffffffffffffffffffffff1673ffffffffffffffffffffffffffffffffffffffff166370a08231306040518263ffffffff1660e01b81526004016100ee9190611fdb565b60206040518083038186803b15801561010657600080fd5b505afa15801561011a573d6000803e3d6000fd5b505050506040513d601f19601f8201168201806040525061013e9190810190611abd565b90506000600181111561014d57fe5b8260000151600181111561015d57fe5b14156106b257600360009054906101000a900473ffffffffffffffffffffffffffffffffffffffff1673ffffffffffffffffffffffffffffffffffffffff1663095ea7b36000809054906101000a900473ffffffffffffffffffffffffffffffffffffffff16836040518363ffffffff1660e01b81526004016101e1929190611ff6565b602060405180830381600087803b1580156101fb57600080fd5b505af115801561020f573d6000803e3d6000fd5b505050506040513d601f19601f820116820180604052506102339190810190611a6b565b5060008060009054906101000a900473ffffffffffffffffffffffffffffffffffffffff1673ffffffffffffffffffffffffffffffffffffffff1663809a9e55600360009054906101000a900473ffffffffffffffffffffffffffffffffffffffff1673eeeeeeeeeeeeeeeeeeeeeeeeeeeeeeeeeeeeeeee856040518463ffffffff1660e01b81526004016102ca93929190612056565b604080518083038186803b1580156102e157600080fd5b505afa1580156102f5573d6000803e3d6000fd5b505050506040513d601f19601f820116820180604052506103199190810190611ae6565b5090506000809054906101000a900473ffffffffffffffffffffffffffffffffffffffff1673ffffffffffffffffffffffffffffffffffffffff16633bba21dc600360009054906101000a900473ffffffffffffffffffffffffffffffffffffffff1684846040518463ffffffff1660e01b815260040161039c939291906120b6565b602060405180830381600087803b1580156103b657600080fd5b505af11580156103ca573d6000803e3d6000fd5b505050506040513d601f19601f820116820180604052506103ee9190810190611abd565b50606060026040519080825280602002602001820160405280156104215781602001602082028038833980820191505090505b509050600260009054906101000a900473ffffffffffffffffffffffffffffffffffffffff168160008151811061045457fe5b602002602001019073ffffffffffffffffffffffffffffffffffffffff16908173ffffffffffffffffffffffffffffffffffffffff1681525050600360009054906101000a900473ffffffffffffffffffffffffffffffffffffffff16816001815181106104be57fe5b602002602001019073ffffffffffffffffffffffffffffffffffffffff16908173ffffffffffffffffffffffffffffffffffffffff16815250506060600160009054906101000a900473ffffffffffffffffffffffffffffffffffffffff1673ffffffffffffffffffffffffffffffffffffffff1663d06ca61f3073ffffffffffffffffffffffffffffffffffffffff1631846040518363ffffffff1660e01b815260040161056e9291906121ba565b60006040518083038186803b15801561058657600080fd5b505afa15801561059a573d6000803e3d6000fd5b505050506040513d6000823e3d601f19601f820116820180604052506105c39190810190611a2a565b9050600160009054906101000a900473ffffffffffffffffffffffffffffffffffffffff1673ffffffffffffffffffffffffffffffffffffffff16637ff36ab53073ffffffffffffffffffffffffffffffffffffffff16318360018151811061062857fe5b60200260200101518530426040518663ffffffff1660e01b815260040161065294939291906121ea565b6000604051808303818588803b15801561066b57600080fd5b505af115801561067f573d6000803e3d6000fd5b50505050506040513d6000823e3d601f19601f820116820180604052506106a99190810190611a2a565b50505050610bfe565b600360009054906101000a900473ffffffffffffffffffffffffffffffffffffffff1673ffffffffffffffffffffffffffffffffffffffff1663095ea7b3600160009054906101000a900473ffffffffffffffffffffffffffffffffffffffff16836040518363ffffffff1660e01b8152600401610731929190611ff6565b602060405180830381600087803b15801561074b57600080fd5b505af115801561075f573d6000803e3d6000fd5b505050506040513d601f19601f820116820180604052506107839190810190611a6b565b50606060026040519080825280602002602001820160405280156107b65781602001602082028038833980820191505090505b509050600360009054906101000a900473ffffffffffffffffffffffffffffffffffffffff16816000815181106107e957fe5b602002602001019073ffffffffffffffffffffffffffffffffffffffff16908173ffffffffffffffffffffffffffffffffffffffff1681525050600260009054906101000a900473ffffffffffffffffffffffffffffffffffffffff168160018151811061085357fe5b602002602001019073ffffffffffffffffffffffffffffffffffffffff16908173ffffffffffffffffffffffffffffffffffffffff16815250506060600160009054906101000a900473ffffffffffffffffffffffffffffffffffffffff1673ffffffffffffffffffffffffffffffffffffffff1663d06ca61f84846040518363ffffffff1660e01b81526004016108ec9291906121ba565b60006040518083038186803b15801561090457600080fd5b505afa158015610918573d6000803e3d6000fd5b505050506040513d6000823e3d601f19601f820116820180604052506109419190810190611a2a565b9050600160009054906101000a900473ffffffffffffffffffffffffffffffffffffffff1673ffffffffffffffffffffffffffffffffffffffff166318cbafe5848360018151811061098f57fe5b60200260200101518530426040518663ffffffff1660e01b81526004016109ba959493929190612236565b600060405180830381600087803b1580156109d457600080fd5b505af11580156109e8573d6000803e3d6000fd5b505050506040513d6000823e3d601f19601f82011682018060405250610a119190810190611a2a565b5060008060009054906101000a900473ffffffffffffffffffffffffffffffffffffffff1673ffffffffffffffffffffffffffffffffffffffff1663809a9e5573eeeeeeeeeeeeeeeeeeeeeeeeeeeeeeeeeeeeeeee600360009054906101000a900473ffffffffffffffffffffffffffffffffffffffff163073ffffffffffffffffffffffffffffffffffffffff16316040518463ffffffff1660e01b8152600401610abf93929190612056565b604080518083038186803b158015610ad657600080fd5b505afa158015610aea573d6000803e3d6000fd5b505050506040513d601f19601f82011682018060405250610b0e9190810190611ae6565b5090506000809054906101000a900473ffffffffffffffffffffffffffffffffffffffff1673ffffffffffffffffffffffffffffffffffffffff16637a2a04563073ffffffffffffffffffffffffffffffffffffffff1631600360009054906101000a900473ffffffffffffffffffffffffffffffffffffffff16846040518463ffffffff1660e01b8152600401610ba792919061208d565b6020604051808303818588803b158015610bc057600080fd5b505af1158015610bd4573d6000803e3d6000fd5b50505050506040513d601f19601f82011682018060405250610bf99190810190611abd565b505050505b8160200151600360009054906101000a900473ffffffffffffffffffffffffffffffffffffffff1673ffffffffffffffffffffffffffffffffffffffff166370a08231306040518263ffffffff1660e01b8152600401610c5e9190611fdb565b60206040518083038186803b158015610c7657600080fd5b505afa158015610c8a573d6000803e3d6000fd5b505050506040513d601f19601f82011682018060405250610cae9190810190611abd565b1015610cef576040517f08c379a0000000000000000000000000000000000000000000000000000000008152600401610ce690612124565b60405180910390fd5b60008260200151600360009054906101000a900473ffffffffffffffffffffffffffffffffffffffff1673ffffffffffffffffffffffffffffffffffffffff166370a08231306040518263ffffffff1660e01b8152600401610d519190611fdb565b60206040518083038186803b158015610d6957600080fd5b505afa158015610d7d573d6000803e3d6000fd5b505050506040513d601f19601f82011682018060405250610da19190810190611abd565b039050600360009054906101000a900473ffffffffffffffffffffffffffffffffffffffff1673ffffffffffffffffffffffffffffffffffffffff1663a9059cbb600460009054906101000a900473ffffffffffffffffffffffffffffffffffffffff16836040518363ffffffff1660e01b8152600401610e23929190611ff6565b602060405180830381600087803b158015610e3d57600080fd5b505af1158015610e51573d6000803e3d6000fd5b505050506040513d601f19601f82011682018060405250610e759190810190611a6b565b507fa89b78c8d1240154beaf4b865d2d7cb794ac0f358c618aef3de102cf4a4ee42d83600001518242604051610ead939291906120ed565b60405180910390a1505050505050565b60008490506000610ece8686611126565b90506000610edb856112d8565b90508573ffffffffffffffffffffffffffffffffffffffff1663095ea7b388836040518363ffffffff1660e01b8152600401610f18929190611ff6565b602060405180830381600087803b158015610f3257600080fd5b505af1158015610f46573d6000803e3d6000fd5b505050506040513d601f19601f82011682018060405250610f6a9190810190611a6b565b5060606003604051908082528060200260200182016040528015610fa857816020015b610f956115c4565b815260200190600190039081610f8d5790505b509050610fb583876112f5565b81600081518110610fc257fe5b60200260200101819052506110146040518060400160405280876001811115610fe757fe5b8152602001848152506040516020016110009190612184565b6040516020818303038152906040526113ae565b8160018151811061102157fe5b60200260200101819052506110368383611458565b8160028151811061104357fe5b60200260200101819052506060600160405190808252806020026020018201604052801561108b57816020015b611078611630565b8152602001906001900390816110705790505b509050611096611511565b816000815181106110a357fe5b60200260200101819052508473ffffffffffffffffffffffffffffffffffffffff1663a67a6a4582846040518363ffffffff1660e01b81526004016110e992919061201f565b600060405180830381600087803b15801561110357600080fd5b505af1158015611117573d6000803e3d6000fd5b50505050505050505050505050565b60008083905060008173ffffffffffffffffffffffffffffffffffffffff1663295c39a56040518163ffffffff1660e01b815260040160206040518083038186803b15801561117457600080fd5b505afa158015611188573d6000803e3d6000fd5b505050506040513d601f19601f820116820180604052506111ac9190810190611abd565b9050600080600090505b82811015611296578373ffffffffffffffffffffffffffffffffffffffff1663062bd3e9826040518263ffffffff1660e01b81526004016111f7919061219f565b60206040518083038186803b15801561120f57600080fd5b505afa158015611223573d6000803e3d6000fd5b505050506040513d601f19601f820116820180604052506112479190810190611937565b91508573ffffffffffffffffffffffffffffffffffffffff168273ffffffffffffffffffffffffffffffffffffffff16141561128957809450505050506112d2565b80806001019150506111b6565b506040517f08c379a00000000000000000000000000000000000000000000000000000000081526004016112c990612164565b60405180910390fd5b92915050565b60006112ee60028361154a90919063ffffffff16565b9050919050565b6112fd611660565b6040518061010001604052806001600881111561131657fe5b81526020016000815260200160405180608001604052806000151581526020016000600181111561134357fe5b81526020016000600181111561135557fe5b8152602001858152508152602001848152602001600081526020013073ffffffffffffffffffffffffffffffffffffffff1681526020016000815260200160405180602001604052806000815250815250905092915050565b6113b6611660565b6040518061010001604052806008808111156113ce57fe5b8152602001600081526020016040518060800160405280600015158152602001600060018111156113fb57fe5b81526020016000600181111561140d57fe5b81526020016000815250815260200160008152602001600081526020013073ffffffffffffffffffffffffffffffffffffffff16815260200160008152602001838152509050919050565b611460611660565b6040518061010001604052806000600881111561147957fe5b8152602001600081526020016040518060800160405280600115158152602001600060018111156114a657fe5b8152602001600060018111156114b857fe5b8152602001858152508152602001848152602001600081526020013073ffffffffffffffffffffffffffffffffffffffff1681526020016000815260200160405180602001604052806000815250815250905092915050565b6115196116cc565b60405180604001604052803073ffffffffffffffffffffffffffffffffffffffff1681526020016001815250905090565b600080828401905083811015611595576040517f08c379a000000000000000000000000000000000000000000000000000000000815260040161158c90612144565b60405180910390fd5b8091505092915050565b6040518060400160405280600060018111156115b757fe5b8152602001600081525090565b604051806101600160405280600060088111156115dd57fe5b8152602001600081526020016115f16116fc565b81526020016000815260200160008152602001600073ffffffffffffffffffffffffffffffffffffffff16815260200160008152602001606081525090565b6040518060400160405280600073ffffffffffffffffffffffffffffffffffffffff168152602001600081525090565b6040518061016001604052806000600881111561167957fe5b81526020016000815260200161168d6116fc565b81526020016000815260200160008152602001600073ffffffffffffffffffffffffffffffffffffffff16815260200160008152602001606081525090565b6040518060400160405280600073ffffffffffffffffffffffffffffffffffffffff168152602001600081525090565b60405180608001604052806000151581526020016000600181111561171d57fe5b81526020016000600181111561172f57fe5b8152602001600081525090565b60006117488235612478565b905092915050565b600061175c8251612478565b905092915050565b600082601f83011261177557600080fd5b8151611788611783826122bd565b612290565b915081818352602084019350602081019050838560208402820111156117ad57600080fd5b60005b838110156117dd57816117c38882611923565b8452602084019350602083019250506001810190506117b0565b5050505092915050565b60006117f3825161248a565b905092915050565b600082601f83011261180c57600080fd5b813561181f61181a826122e5565b612290565b9150808252602083016020830185838301111561183b57600080fd5b611846838284612543565b50505092915050565b600061185b8235612496565b905092915050565b600061186f8251612496565b905092915050565b60006040828403121561188957600080fd5b6118936040612290565b905060006118a384828501611863565b60008301525060206118b784828501611923565b60208301525092915050565b6000604082840312156118d557600080fd5b6118df6040612290565b905060006118ef8482850161173c565b60008301525060206119038482850161190f565b60208301525092915050565b600061191b82356124cd565b905092915050565b600061192f82516124cd565b905092915050565b60006020828403121561194957600080fd5b600061195784828501611750565b91505092915050565b6000806000806080858703121561197657600080fd5b60006119848782880161173c565b94505060206119958782880161173c565b93505060406119a68782880161190f565b92505060606119b78782880161184f565b91505092959194509250565b6000806000608084860312156119d857600080fd5b60006119e68682870161173c565b93505060206119f7868287016118c3565b925050606084013567ffffffffffffffff811115611a1457600080fd5b611a20868287016117fb565b9150509250925092565b600060208284031215611a3c57600080fd5b600082015167ffffffffffffffff811115611a5657600080fd5b611a6284828501611764565b91505092915050565b600060208284031215611a7d57600080fd5b6000611a8b848285016117e7565b91505092915050565b600060408284031215611aa657600080fd5b6000611ab484828501611877565b91505092915050565b600060208284031215611acf57600080fd5b6000611add84828501611923565b91505092915050565b60008060408385031215611af957600080fd5b6000611b0785828601611923565b9250506020611b1885828601611923565b9150509250929050565b6000611b2e8383611b66565b60208301905092915050565b6000611b468383611e57565b905092915050565b6000611b5a8383611f8e565b60408301905092915050565b611b6f816123e0565b82525050565b611b7e816123e0565b82525050565b6000611b8f82612338565b611b99818561238b565b9350611ba483612311565b60005b82811015611bd257611bba868351611b22565b9550611bc582612364565b9150600181019050611ba7565b50849250505092915050565b6000611be982612343565b611bf3818561239c565b935083602082028501611c058561231e565b60005b84811015611c3e578383038852611c20838351611b3a565b9250611c2b82612371565b9150602088019750600181019050611c08565b508196508694505050505092915050565b6000611c5a8261234e565b611c6481856123ad565b9350611c6f8361232b565b60005b82811015611c9d57611c85868351611b4e565b9550611c908261237e565b9150600181019050611c72565b50849250505092915050565b611cb2816123f2565b82525050565b6000611cc382612359565b611ccd81856123be565b9350611cdd818560208601612552565b611ce681612585565b840191505092915050565b611cfa816124d7565b82525050565b611d09816124fb565b82525050565b611d188161250d565b82525050565b611d278161251f565b82525050565b611d3681612531565b82525050565b611d4581612531565b82525050565b6000611d586024836123cf565b91507f4e6f7420656e6f7567682066756e647320746f2072657061792044794478206c60008301527f6f616e21000000000000000000000000000000000000000000000000000000006020830152604082019050919050565b6000611dbe601b836123cf565b91507f536166654d6174683a206164646974696f6e206f766572666c6f7700000000006000830152602082019050919050565b6000611dfe6024836123cf565b91507f4e6f206d61726b6574496420666f756e6420666f722070726f7669646564207460008301527f6f6b656e000000000000000000000000000000000000000000000000000000006020830152604082019050919050565b600061016083016000830151611e706000860182611d00565b506020830151611e836020860182611fbd565b506040830151611e966040860182611f39565b506060830151611ea960c0860182611fbd565b506080830151611ebc60e0860182611fbd565b5060a0830151611ed0610100860182611b66565b5060c0830151611ee4610120860182611fbd565b5060e0830151848203610140860152611efd8282611cb8565b9150508091505092915050565b604082016000820151611f206000850182611d2d565b506020820151611f336020850182611fbd565b50505050565b608082016000820151611f4f6000850182611ca9565b506020820151611f626020850182611d0f565b506040820151611f756040850182611d1e565b506060820151611f886060850182611fbd565b50505050565b604082016000820151611fa46000850182611b66565b506020820151611fb76020850182611fbd565b50505050565b611fc68161246e565b82525050565b611fd58161246e565b82525050565b6000602082019050611ff06000830184611b75565b92915050565b600060408201905061200b6000830185611b75565b6120186020830184611fcc565b9392505050565b600060408201905081810360008301526120398185611c4f565b9050818103602083015261204d8184611bde565b90509392505050565b600060608201905061206b6000830186611cf1565b6120786020830185611cf1565b6120856040830184611fcc565b949350505050565b60006040820190506120a26000830185611cf1565b6120af6020830184611fcc565b9392505050565b60006060820190506120cb6000830186611cf1565b6120d86020830185611fcc565b6120e56040830184611fcc565b949350505050565b60006060820190506121026000830186611d3c565b61210f6020830185611fcc565b61211c6040830184611fcc565b949350505050565b6000602082019050818103600083015261213d81611d4b565b9050919050565b6000602082019050818103600083015261215d81611db1565b9050919050565b6000602082019050818103600083015261217d81611df1565b9050919050565b60006040820190506121996000830184611f0a565b92915050565b60006020820190506121b46000830184611fcc565b92915050565b60006040820190506121cf6000830185611fcc565b81810360208301526121e18184611b84565b90509392505050565b60006080820190506121ff6000830187611fcc565b81810360208301526122118186611b84565b90506122206040830185611b75565b61222d6060830184611fcc565b95945050505050565b600060a08201905061224b6000830188611fcc565b6122586020830187611fcc565b818103604083015261226a8186611b84565b90506122796060830185611b75565b6122866080830184611fcc565b9695505050505050565b6000604051905081810181811067ffffffffffffffff821117156122b357600080fd5b8060405250919050565b600067ffffffffffffffff8211156122d457600080fd5b602082029050602081019050919050565b600067ffffffffffffffff8211156122fc57600080fd5b601f19601f8301169050602081019050919050565b6000602082019050919050565b6000602082019050919050565b6000602082019050919050565b600081519050919050565b600081519050919050565b600081519050919050565b600081519050919050565b6000602082019050919050565b6000602082019050919050565b6000602082019050919050565b600082825260208201905092915050565b600082825260208201905092915050565b600082825260208201905092915050565b600082825260208201905092915050565b600082825260208201905092915050565b60006123eb8261244e565b9050919050565b60008115159050919050565b60006009821061240a57fe5b819050919050565b60006002821061241e57fe5b819050919050565b60006002821061243257fe5b819050919050565b60006002821061244657fe5b819050919050565b600073ffffffffffffffffffffffffffffffffffffffff82169050919050565b6000819050919050565b6000612483826124ad565b9050919050565b60008115159050919050565b6000600282106124a557600080fd5b819050919050565b600073ffffffffffffffffffffffffffffffffffffffff82169050919050565b6000819050919050565b60006124e2826124e9565b9050919050565b60006124f48261244e565b9050919050565b6000612506826123fe565b9050919050565b600061251882612412565b9050919050565b600061252a82612426565b9050919050565b600061253c8261243a565b9050919050565b82818337600083830152505050565b60005b83811015612570578082015181840152602081019050612555565b8381111561257f576000848401525b50505050565b6000601f19601f830116905091905056fea265627a7a72305820c7bba7ee2ba5ef72c380b0ca1b404a1f2dab64b17d3bb43c4fb98ba3622993a66c6578706572696d656e74616cf50037",
  "source": "pragma solidity ^0.5.7;\r\npragma experimental ABIEncoderV2;\r\n\r\nimport \"@studydefi/money-legos/dydx/contracts/DydxFlashloanBase.sol\";\r\nimport \"@studydefi/money-legos/dydx/contracts/ICallee.sol\";\r\nimport { KyberNetworkProxy as IKyberNetworkProxy } from '@studydefi/money-legos/kyber/contracts/KyberNetworkProxy.sol';\r\n\r\nimport \"@openzeppelin/contracts/token/ERC20/IERC20.sol\";\r\nimport \"./IUniswapV2Router02.sol\";\r\nimport \"./IWeth.sol\";\r\n\r\n\r\ncontract Flashloan is ICallee, DydxFlashloanBase {\r\n\r\n    enum Direction { KyberToUniswap, UniswapToKyber } \r\n    struct ArbInfo {\r\n        Direction direction;\r\n        uint repayAmount;\r\n    }\r\n\r\n    event NewArbitrage(Direction direction, uint profit, uint date);\r\n\r\n    IKyberNetworkProxy kyber;\r\n    IUniswapV2Router02 uniswap;\r\n    IWeth weth;\r\n    IERC20 dai;\r\n    address beneficiary;\r\n    address constant KYBER_ETH_ADDRESS = 0xEeeeeEeeeEeEeeEeEeEeeEEEeeeeEeeeeeeeEEeE;\r\n\r\n    constructor(address kyberAddress,address uniswapAddress,address wethAddress,address daiAddress, address beneficiaryAddress) public \r\n    {\r\n        kyber = IKyberNetworkProxy(kyberAddress);\r\n        uniswap = IUniswapV2Router02(uniswapAddress);\r\n        weth = IWeth(wethAddress);\r\n        dai = IERC20(daiAddress);\r\n        beneficiary = beneficiaryAddress;\r\n    }\r\n\r\n    // This is the function that will be called postLoan\r\n    // i.e. Encode the logic to handle your flashloaned funds here\r\n    function callFunction(address sender,Account.Info memory account,bytes memory data) public \r\n    {\r\n        ArbInfo memory arbInfo = abi.decode(data, (ArbInfo));\r\n        uint balanceDai = dai.balanceOf(address(this));\r\n\r\n        if (arbInfo.direction == Direction.KyberToUniswap)\r\n        {\r\n            //Buy ETH on Kyber\r\n            dai.approve(address(kyber), balanceDai);\r\n            (uint expectedRate, ) = kyber.getExpectedRate(dai, IERC20(KYBER_ETH_ADDRESS), balanceDai);\r\n            kyber.swapTokenToEther(dai, balanceDai, expectedRate);\r\n\r\n            //Sell ETH on Uniswap\r\n            address[] memory path = new address[](2);\r\n            path[0] = address(weth);\r\n            path[1] = address(dai);\r\n            uint[] memory minOuts = uniswap.getAmountsOut(address(this).balance, path);\r\n            uniswap.swapExactETHForTokens.value(address(this).balance)(\r\n                minOuts[1], \r\n                path, \r\n                address(this), \r\n                now\r\n            );\r\n        }\r\n        else\r\n        {\r\n            //Buy ETH on Uniswap\r\n            dai.approve(address(uniswap), balanceDai);\r\n            address[] memory path = new address[](2);\r\n            path[0] = address(dai);\r\n            path[1] = address(weth);\r\n            uint[] memory minOuts = uniswap.getAmountsOut(balanceDai, path);\r\n            uniswap.swapExactTokensForETH(\r\n                balanceDai,\r\n                minOuts[1], \r\n                path, \r\n                address(this), \r\n                now\r\n            );\r\n\r\n            //Sell ETH on Kyber\r\n            (uint expectedRate, ) = kyber.getExpectedRate(IERC20(KYBER_ETH_ADDRESS), dai, address(this).balance);\r\n            kyber.swapEtherToToken.value(address(this).balance)(dai, expectedRate);\r\n        }\r\n\r\n        require(dai.balanceOf(address(this)) >= arbInfo.repayAmount, \"Not enough funds to repay DyDx loan!\");\r\n\r\n        uint profit = dai.balanceOf(address(this)) - arbInfo.repayAmount;\r\n        dai.transfer(beneficiary, profit);\r\n        emit NewArbitrage(arbInfo.direction, profit, now);\r\n    }\r\n\r\n    function initiateFlashloan(address _solo, address _token, uint256 _amount,Direction _direction) external \r\n    {\r\n        ISoloMargin solo = ISoloMargin(_solo);\r\n\r\n        // Get marketId from token address\r\n        uint256 marketId = _getMarketIdFromTokenAddress(_solo, _token);\r\n\r\n        // Calculate repay amount (_amount + (2 wei))\r\n        // Approve transfer from\r\n        uint256 repayAmount = _getRepaymentAmountInternal(_amount);\r\n        IERC20(_token).approve(_solo, repayAmount);\r\n\r\n        // 1. Withdraw $\r\n        // 2. Call callFunction(...)\r\n        // 3. Deposit back $\r\n        Actions.ActionArgs[] memory operations = new Actions.ActionArgs[](3);\r\n\r\n        operations[0] = _getWithdrawAction(marketId, _amount);\r\n        operations[1] = _getCallAction(\r\n            // Encode MyCustomData for callFunction\r\n            abi.encode(ArbInfo({direction: _direction, repayAmount: repayAmount}))\r\n        );\r\n        operations[2] = _getDepositAction(marketId, repayAmount);\r\n\r\n        Account.Info[] memory accountInfos = new Account.Info[](1);\r\n        accountInfos[0] = _getAccountInfo();\r\n\r\n        solo.operate(accountInfos, operations);\r\n    }\r\n\r\n    //function() external payable {}\r\n}",
  "sourcePath": "C:\\Users\\Paulg\\Desktop\\Projects\\FlashLoans\\contracts\\Flashloan.sol",
  "compiler": {
    "name": "solc",
    "version": "0.5.7+commit.6da8b019.Emscripten.clang"
  },
  "schemaVersion": "3.4.11",
  "updatedAt": "2023-02-22T20:29:42.508Z",
  "devdoc": {
    "methods": {}
  },
  "userdoc": {
    "methods": {}
  }
}